:020000040000FA
:040000004EEF07F0C8
:10060000000102044142434445464748494A4C4D93
:100610004E4F505152535455565758595A20202036
:100620002020202020202020202020202000646561
:10063000203120612035202020202020202000642F
:1006400061206261746964612020202020202000E4
:100650004F75206170657274652027232720202044
:10066000005472616475746F7220636F6469676FA0
:100670002000706172612061706167617220747521
:10068000646F00456E74726520636F6D206E756DCA
:0506900065726F00001F
:10069600000E086E81CF07F0000E096E010E0924C8
:1006A600F66EF76A060EF7220800F550FF0A816E0D
:1006B600000E026E050E016EC4EC06F083B666EF00
:1006C60003F068EF03F080EF03F0000E026E0F0EEA
:1006D600016EC4EC06F083B673EF03F075EF03F01A
:1006E60080EF03F083A67AEF03F07CEF03F075EF5B
:1006F60003F00928086EEBEF03F083B485EF03F0EF
:1007060087EF03F0A0EF03F0000E026E0F0E016EEE
:10071600C4EC06F083B492EF03F094EF03F0A0EF7D
:1007260003F083A499EF03F09BEF03F094EF03F03B
:100736000950040F086EEBEF03F083B2A5EF03F048
:10074600A7EF03F0C0EF03F0000E026E0F0E016E6E
:10075600C4EC06F083B2B2EF03F0B4EF03F0C0EFDF
:1007660003F083A2B9EF03F0BBEF03F0B4EF03F09D
:100776000950070F086EEBEF03F083B0C5EF03F0E7
:10078600C7EF03F0E0EF03F0000E026E0F0E016EEE
:10079600C4EC06F083B0D2EF03F0D4EF03F0E0EF41
:1007A60003F083A0D9EF03F0DBEF03F0D4EF03F0FF
:1007B60009500A0F086EEBEF03F0000E816E092A4E
:1007C600020E0964E9EF03F0EBEF03F051EF03F0DB
:1007D6000850D8A4F1EF03F0F3EF03F0F4EF03F0C1
:1007E60008680B0E0818D8A4FBEF03F0FDEF03F022
:1007F600FFEF03F0000E086E07C081FF08501200DD
:1008060020EE3EF010EE10F01F0EDBCFE3FFE80601
:10081600FCE2000E926E000E956E000E316E000E1A
:10082600306E98EF04F0000E356E050E346E08C07B
:1008360036F009C037F036C001F037C002F00AC002
:1008460003F00BC004F092EC06F001500210D8B48D
:100856002FEF04F031EF04F06AEF04F0000E806E23
:1008660036C001F037C002F00AC003F00BC004F036
:1008760092EC06F0D89001360236100E0124D96E9D
:10088600000E0220DA6EDF50836E34C00EF0010EC9
:100896000F6E0E2A51EF04F0D8900F360E2E4FEF42
:1008A60004F00F50806E000E336E000E326E324A28
:1008B600332A33BE68EF04F0335009E1280E325C68
:1008C600D8A068EF04F06AEF04F05AEF04F036C0DF
:1008D60001F037C002F00AC003F00BC004F023ECAD
:1008E60006F001C036F002C037F03406D8A035064F
:1008F600304A312A37BE88EF04F0375008E1360413
:10090600D8A088EF04F08AEF04F098EF04F035BE23
:1009160098EF04F0355007E1020E345CD8B096EF3C
:1009260004F098EF04F01EEF04F00C50305C3150E8
:10093600800A0E6E0D50800A0E58D8A0A5EF04F05E
:10094600A7EF04F016EF04F0000E806E1200060EFC
:10095600C16E000E946E000E956E000E966E82822B
:10096600F6EC06F0F80E936EF6EC06F0610E086EE5
:10097600060E096EE7EC05F0000E086E010E84EC1B
:1009860007F03F0E086E060E096EE7EC05F05DEC0B
:1009960006F0010EB3EC07F0830E086E060E096E24
:1009A600E7EC05F0000E086E010E84EC07F02E0E43
:1009B600086E060E096EE7EC05F05DEC06F0010E1A
:1009C600B3EC07F0500E086E060E096EE7EC05F064
:1009D600000E086E010E84EC07F0720E086E060E0D
:1009E600096EE7EC05F05DEC06F04CEC05F000EF67
:1009F60000F00D6E100E796003EF05F005EF05F0BF
:100A060019EF05F00D509EEC07F0792A100E7918B3
:100A1600D8A410EF05F012EF05F04BEF05F0000E2D
:100A2600086E010E84EC07F04BEF05F0520E7924A8
:100A3600D96EDA6A000EDA220DC0DFFF0D509EEC89
:100A460007F0792A200E7918D8A42CEF05F02EEF9E
:100A560005F04BEF05F0000E086E000E84EC07F073
:100A6600620E086E000E096EE7EC05F0000E086EC9
:100A7600010E84EC07F01D0E086E060E096EE7ECFB
:100A860005F0000E086E010E84EC07F0100E796E6C
:100A96001200C8EC07F06EEF05F024EC07F09AECB4
:100AA60005F074BE5FEF05F0745008E17304D8A03A
:100AB6005FEF05F061EF05F06EEF05F07306D8A065
:100AC600740673507410D8A46BEF05F06DEF05F043
:100AD6006EEF05F08282020E7A18D8A475EF05F043
:100AE60077EF05F050EF05F0000E7A6EFA0E3A6ECB
:100AF600FF0E3B6E7750050D040E3C6E060E3D6EE6
:100B0600F3503C26F4503D2278503C26000E3D2200
:100B16003A503C263B503D223CC0F6FF3DC0F7FF15
:100B26000800F550FCEC04F06EEF05F012000F0E15
:100B3600956E4BEC03F00A6E0A500B6E0C6A000EB3
:100B4600956E0CBEAFEF05F00C5008E10B04D8A073
:100B5600AFEF05F0B1EF05F0DAEF05F00CBEBFEF31
:100B660005F00C5007E1060E0B5CD8B0BDEF05F0A2
:100B7600BFEF05F0DAEF05F07A50D8A4C5EF05F01F
:100B8600C7EF05F0CDEF05F077C075F078C076F0C9
:100B9600000E786EEEEC07F0770E7A24D96EDA6ADC
:100BA600000EDA220BC0DFFF7A2AE6EF05F00C0E04
:100BB6000B180C10D8A4E2EF05F0E4EF05F0E6EF11
:100BC60005F0C8EC07F01200000E0C6E04EF06F0FC
:100BD6000C5008240A6E000E09200B6E0AC0F6FFA0
:100BE6000BC0F7FFF86A050EF76403D00800F5504E
:100BF60005D0F6CFE9FFF7CFEAFFEF509EEC07F0FE
:100C06000C2A0C5008240A6E000E09200B6E0AC02E
:100C1600F6FF0BC0F7FFF86A050EF76403D008006D
:100C2600F55005D0F6CFE9FFF7CFEAFFEF50000900
:100C3600D8A420EF06F022EF06F0EBEF05F0120045
:100C4600000E066E000E056E03500410D8B42EEF8B
:100C560006F030EF06F058EF06F0010E076E38EF9B
:100C660006F0D89003360436072A04AE3DEF06F0A8
:100C76003FEF06F034EF06F0D890053606360350FF
:100C8600015C04500258D8A04BEF06F04DEF06F079
:100C960052EF06F00350015E0450025A0580D890C8
:100CA60004320332072E3FEF06F005C001F006C0FE
:100CB60002F01200000E936E010E816E000E026E9F
:100CC600640E016EC4EC06F072EF06F081508124CA
:100CD600816E000E026E320E016EC4EC06F0800EBE
:100CE6008118D8A479EF06F07BEF06F069EF06F0DD
:100CF60086EF06F0D8908130816E000E026E320EBD
:100D0600016EC4EC06F0020E8118D8A48DEF06F031
:100D16008FEF06F07DEF06F0000E816E1200035095
:100D26000410D8B499EF06F09BEF06F0BFEF06F07B
:100D3600010E056EA3EF06F0D89003360436052A99
:100D460004AEA8EF06F0AAEF06F09FEF06F00350F8
:100D5600015C04500258D8A0B3EF06F0B5EF06F0D8
:100D6600B9EF06F00350015E0450025AD8900432DF
:100D76000332052EAAEF06F001C001F002C002F010
:100D86001200000E046E000E036EEAEF06F0000E6F
:100D9600056E280E0564D2EF06F0D4EF06F0D6EF06
:100DA60006F0E8EF06F0000E066E020E0664DEEFB1
:100DB60006F0E0EF06F0E2EF06F0E5EF06F0062AB1
:100DC600D8EF06F0052ACCEF06F0034A042A0150B4
:100DD600035C02500458D8A0F3EF06F0F5EF06F0D6
:100DE600CAEF06F0120084928494000E026E140E6E
:100DF600016EC4EC06F08482380EB3EC07F0000EE8
:100E0600026E050E016EC4EC06F0380EB3EC07F068
:100E1600000E026E010E016EC4EC06F0380EB3EC45
:100E260007F0080EB3EC07F00F0EB3EC07F0010E57
:100E3600B3EC07F0380EB3EC07F0800EB3EC07F016
:100E4600120075C001F0026A030E046EE80E036E0E
:100E5600DBEC07F07650640DF3CF38F0F4CF39F0C1
:100E660077500A0DF3503826F450392201503826AF
:100E76000250392278503824086E000E3920096E47
:100E8600000E0B6E0A0E0A6E000E0D6E190E0C6E1B
:100E960003EC04F01200D20EF66E0E0EF76E000E84
:100EA600F86E00EE3EF010EE35F00900F5CFEEFFDD
:100EB600E550E150FAE100EE73F0080EEE6AE8063E
:100EC600FDE1000EF86E0001AAEF04F03F000600F7
:100ED6005B004F0066006D007D0007007F00670025
:100EE60077007C0039005E00790071000F00050074
:100EF60020202020202020202020202020202020EC
:010F060000EA
:100F0800096E0950D8A48BEF07F08DEF07F093EF27
:100F180007F0000E0B6E000E0A6E97EF07F0000E3A
:100F28000B6E400E0A6E08500F0B0A108009B3ECC6
:100F380007F01200076E84820750F4EC07F08484EF
:100F4800000E026E030E016EC4EC06F08492000ED1
:100F5800026E030E016EC4EC06F084821200076E66
:100F680084820750F4EC07F08494000E026E030E9E
:100F7800016EC4EC06F08492000E026E030E016E40
:100F8800C4EC06F084821200000E776E000E786EB4
:100F9800000E756E000E766E000E796E010EB3ECC3
:100FA80007F0000E746E000E736E828212000150FC
:100FB8000302F3CF05F0F4CF06F001500402F3501A
:100FC800062602500302F350062605C001F006C0AB
:100FD80002F012008292000E746E060E736E1200FA
:080FE800016E01C083FF12003D
:020000040020DA
:08000000FFFFFFFFFFFFFFFF00
:020000040030CA
:0E000000FF021F00FF8381FF0FC00FE00F40C3
:00000001FF
